:020000040000FA
:03000000000004F9
:03000100000800F4
:03000200001FE4F8
:030003000047991A
:03000400007F0674
:0300050000C6151D
:03000600011CAE2C
:030007000182BAB9
:0300080001F823D9
:03000900027CD2A4
:03000A000310B12F
:03000B0003B3A894
:03000C000065A2EA
:03000D0001268940
:03000E0001F648B0
:03000F0002D4C850
:0300100003C1F435
:0300110000BDB778
:0300120001C7FC27
:0300130002E0AE5A
:030014000007B72B
:03001500013D03A7
:0300160002807FE6
:0300170003D214FD
:030018000131B003
:03001900029F3E05
:03001A00001AA920
:03001B0001A3E05E
:03001C00033ACDD7
:03001D0000DF5DA4
:03001E0002917ECE
:03001F0000511B72
:03002000021E229B
:0300210003F88061
:0300220001E022D8
:0300230003D4F50E
:0300240001D6E81A
:0300250003E5E709
:030026000201E1F3
:03002700002AC2EA
:0300280002607BF8
:0300290000A2F73B
:03002A0002F227B8
:03002B00014DF88C
:03002C0003B659BF
:03002D00022B386B
:03002E0000AC849F
:03002F00033A2D64
:0300300001D421D7
:03003100007A5002
:03003200032CA8F4
:0300330001EB19C5
:0300340000B59381
:03003500038C0633
:03003600026E60F7
:03003700015C93D6
:0300380000568DE2
:03003900035C3F26
:03003A00026D9ABA
:03003B00018A8DAA
:03003C0000B30905
:03003D0003E6FFD8
:03003E0003265F37
:03003F0002711A31
:0300400001C720D5
:030041000128642F
:030042000094D552
:03004300000C6549
:03004400038F0621
:03004500031CA8F1
:0300460002B53DC3
:030047000258B7A5
:03004800020707A5
:0300490001C020D3
:03004A000183F23D
:03004B00015271EE
:03004C00012B8EF7
:03004D00010F3A66
:03004E0000FD6949
:03004F0000F60DAB
:0300500000F9199B
:0300510001067E27
:03005200011E2F5D
:0300530001401F4A
:03005400016C42FA
:0300550001A2897C
:0300560001E2E8DC
:03005700022D5126
:030058000281B969
:0300590002E012B0
:03005A0003484F09
:03005B0003BA6481
:03005C0000364427
:03005D0000BBE401
:03005E00014B361D
:03005F0001E42E8B
:030060000286C154
:030061000332E186
:0300620003E8842C
:0300630000A79C57
:0300640001701F09
:0300650002420054
:03006600031D3344
:030067000001AEE7
:0300680000EF6442
:0300690001E64A63
:03006A0002E65556
:03006B0003EF7927
:03006C000101ABE4
:03006D00021CDF93
:03006E0003410B40
:03006F00006E24FC
:0300700001A41ECA
:0300710002E2EFB9
:03007200002A8CD5
:03007300017AE926
:0300740002D3FDB7
:030075000035BD96
:0300760001A01EC8
:030077000313155B
:03007800008E995E
:0300790002129ED2
:03007A00039F1BC6
:03007B0001340647
:03007C0002D1535B
:03007D000076F911
:03007E000224EE6B
:03007F0003DB2878
:0300800001999E45
:03008100036044D5
:03008200012F1239
:030083000305FD75
:0300840000E4FC99
:0300850002CC06A4
:0300860000BB10AC
:0300870002B211B1
:0300880000B101C3
:0300890002B7D5E6
:03008A0000C68429
:03008B0002DD048F
:03008C0000FB4E28
:03008D00032157F5
:03008E00014F1609
:03008F0003848364
:0300900001C19417
:0300910000064026
:0300920002527F98
:0300930000A6487C
:03009400030191D4
:03009500016453B0
:0300960003CE8412
:0300970002401D07
:0300980000B91399
:03009900033960C8
:03009A0001C0FAA8
:03009B00004FD93A
:03009C0002E5F585
:03009D0001834597
:03009E000027C177
:03009F0002D36128
:0300A00001861CBA
:0300A100003FEC31
:0300A2000300C692
:0300A30001C8A5EC
:0300A40000977F43
:0300A500036D4C9C
:0300A600024A0506
:0300A700012DA385
:0300A80000181C21
:0300A90003096ADE
:0300AA00020184CC
:0300AB00010064ED
:0300AC000006014A
:0300AD00031254E7
:0300AE00022555D3
:0300AF00013EFE11
:0300B000005F45A9
:0300B1000386259E
:0300B20002B39600
:0300B30001E790D2
:0300B40001220D19
:0300B500006304E1
:0300B60003AA702A
:0300B70002F84804
:0300B800024C8572
:0300B90001A7227A
:0300BA0001081624
:0300BB00006F5A79
:0300BC0003DCE87A
:0300BD000350B934
:0300BE0002CAC6AD
:0300BF00024B08E9
:0300C00001D178F3
:0300C100015E10CD
:0300C20000F0C982
:0300C30000899C15
:0300C4000028838E
:0300C50003CD77F1
:0300C6000378724A
:0300C70003296C9E
:0300C80002E060F3
:0300C900029D474E
:0300CA0002601BB6
:0300CB000228D533
:0300CC0001F76FCA
:0300CD0001CBE381
:0300CE0001A62A5E
:0300CF0001863F68
:0300D000016C1BA5
:0300D1000157B71D
:0300D20001490FD2
:0300D30001401BCE
:0300D400013CD517
:0300D500013F39AF
:0300D60001473FA0
:0300D7000154E1F0
:0300D80001681AA2
:0300D9000180E5BE
:0300DA00019F3A49
:0300DB0001C3144A
:0300DC0001EC6EC6
:0300DD00021B42C1
:0300DE00024F8945
:0300DF0002893F54
:0300E00002C85DF6
:0300E100030CDE2F
:0300E2000356BD05
:0300E30003A5F37F
:0300E40003FA7BA1
:0300E50000545074
:0300E60000B36CF8
:0300E7000117CA34
:0300E8000181642F
:0300E90001F035EE
:0300EA0002643875
:0300EB0002DD67CC
:0300EC00035BBDF6
:0300ED0003DF34FA
:0300EE000067C8E0
:0300EF0000F573A6
:0300F00001883054
:0300F100021FF9F2
:0300F20002BCCA83
:0300F300035E9E0B
:0300F40000056F95
:0300F50000B1381F
:0300F6000161F5B0
:0300F7000217A04D
:0300F80002D234FD
:0300F9000391ADC3
:0300FA00005605A8
:0300FB00011F38AA
:0300FC0001ED40D3
:0300FD0002C01925
:0300FE000397BEA7
:0300FF0000742B5F
:030100000155594D
:03010100023B4678
:030102000325EBE7
:03010300001544A0
:0301040001094DA1
:03010500020201F2
:0301060002FF5B9A
:030107000001569E
:030108000107EFFD
:03010900021320BE
:03010A000322E5E8
:03010B0000373A80
:03010C0001501986
:03010D00026D7F01
:03010E00038F67F5
:03010F0000B5CC6C
:0301100001E0AB60
:03011100030FFFDA
:030112000043C3E4
:03011300017BF37A
:0301140002B88BA3
:0301150003F98764
:03011600013EE2C5
:03011700028898C3
:0301180003D6A467
:03011900012904B5
:03011A00027FB1B0
:03011B0003DAA95B
:03011C000139E8BE
:03011D00029D68D8
:03011E00000526B3
:03011F0001711E4D
:0301200002E14CAD
:030121000055ABDB
:0301220001CE38D3
:03012300034AEF9D
:0301240000CBCC41
:030125000250CABB
:0301260003D9E713
:0301270001671D50
:0301280002F86971
:03012900008DC87E
:03012A0002273574
:03012B0003C4AC5E
:03012C0001662A3F
:03012D00030BAB16
:03012E0000B52AEF
:03012F000262A5C4
:03013000001418A0
:0301310001C97E83
:030132000382D570
:0301330001401870
:0301340003014480
:0301350000C654AD
:03013600028F47EE
:03013700005C1752
:03013800022CC1D5
:0301390000014280
:03013A0001D99652
:03013B0003B5B950
:03013C000195A882
:03013D00037960E3
:03013E000160DD80
:03013F00034C1B53
:03014000013B1868
:03014100032DCFBC
:0301420001243C59
:03014300031E5E3A
:03014400011C306B
:03014500031DAFE8
:030146000122D7BC
:03014700032BA6E1
:0301480001381764
:030149000348293F
:03014A00015BD680
:03014B0003731C1F
:03014C00018DF82A
:03014D0003AC669A
:03014E0001CE647B
:03014F0003F3EDCA
:03015000021CFF8F
:03015100004997CB
:030152000279B17E
:0301530000AD4AB2
:0301540002E45F63
:03015500011EED9B
:03015600035CF156
:03015700019E689E
:0301580003E34E70
:03015900022BA1D5
:03015A0000775DCE
:03015B0002C67F5A
:03015C0001190581
:03015D00036EEB43
:03015E0001C82FA6
:03015F000024CDAC
:030160000284C254
:0301610000E80BA8
:03016200034EA6A3
:0301630001B88F51
:030164000025C4AF
:03016500029642BD
:03016600010A0586
:0301670003810B06
:0301680001FB5147
:030169000078D546
:03016A0002F99205
:03016B00017D878C
:03016C000004B1DB
:03016D00028F0CF2
:03016E00011C97DA
:03016F0003AD4E8F
:0301700002412E1B
:0301710000D8357E
:03017200037260B5
:03017300020FACCC
:0301740000B017C1
:0301750003539D94
:0301760001FA3D4E
:0301770000A3F3EF
:030178000350BC75
:03017900020097EA
:03017A0000B3814E
:03017B000369769F
:03017C00022274E8
:03017D0000DE7A27
:03017E00039D835B
:03017F00025F8D8F
:03018000012496C1
:0301810003EC9CF0
:0301820002B79B26
:0301830001859261
:0301840000567DA5
:03018500032A5AF0
:030186000201274C
:0301870000DAE1BA
:0301880003B78535
:03018900029712C8
:03018A0001798474
:03018B00005EDA39
:03018C0003471016
:03018D0002322516
:03018E0001201637
:03018F000010E07D
:03019000030482E3
:0301910001FAF878
:0301920000F44036
:0301930003F0591D
:0301940002EF3F38
:0301950001F0F185
:0301960000F56B06
:0301970003FCACBA
:030198000306B2A9
:03019900021379D5
:03019A000123003E
:03019B00003545E7
:03019C00034A44CF
:03019D000261FDFF
:03019E00017C6C75
:03019F0000998F35
:0301A00003B9653B
:0301A10002DBEB93
:0301A20002011E39
:0301A3000128FD33
:0301A40000538580
:0301A5000380B420
:0301A60002B0881C
:0301A70001E2FE74
:0301A80001181526
:0301A900004FCB39
:0301AA00038A1DA8
:0301AB0002C7097F
:0301AC0002068DBB
:0301AD000148A75F
:0301AE00008D556C
:0301AF0003D494E2
:0301B000031E63C8
:0301B100026AC01F
:0301B20001B9A8E8
:0301B300010B1924
:0301B400005F12D7
:0301B50003B590FF
:0301B600030E91A4
:0301B700026A14C5
:0301B80001C81566
:0301B90001289486
:0301BA00008B8E29
:0301BB0003F1014C
:0301BC000358EBFA
:0301BD0002C34B2F
:0301BE0002301EEE
:0301BF00019F623B
:0301C00001111515
:0301C10000853680
:0301C20003FBC27A
:0301C3000374B80A
:0301C40002F01531
:0301C500026DD8F0
:0301C60001EDFF49
:0301C7000170873D
:0301C80000F570CF
:0301C900007CB700
:0301CA00000659D3
:0301CB0003925745
:0301CC000320AD60
:0301CD0002B15923
:0301CE0002445A8E
:0301CF0001D9AEA5
:0301D00001715466
:0301D100010B48D7
:0301D20000A78BF8
:0301D300004618CB
:0301D40003E6F04F
:0301D500038A108A
:0301D600032F767E
:0301D70002D7212B
:0301D80002810E93
:0301D900022D3DB7
:0301DA0001DBAB9B
:0301DB00018C563E
:0301DC00013F3DA3
:0301DD0000F45ECD
:0301DE0000ABB7BC
:0301DF0000654771
:0301E00000210CEF
:0301E10003DF0435
:0301E200039F2E4A
:0301E3000361872E
:0301E40003260EE1
:0301E50002ECC267
:0301E60002B5A0BF
:0301E7000280A8EB
:0301E800024DD7EE
:0301E900021D2CC8
:0301EA0001EEA47F
:0301EB0001C2400E
:0301EC000197FC7C
:0301ED00016FD7C8
:0301EE000149D0F4
:0301EF000125E502
:0301F000010414F3
:0301F10000E45CCB
:0301F20000C6BC88
:0301F30000AB302E
:0301F4000091B9BE
:0301F500007A5439
:0301F600006500A1
:0301F7000051BCF8
:0301F8000040853F
:0301F90000315A78
:0301FA0000243AA4
:0301FB00001923C5
:0301FC00001014DC
:0301FD0000090BEB
:0301FE00000406F4
:0301FF00000104F8
:00000001ff
