:020000040000FA
:03000000000002FB
:03000100000FF6F7
:03000200001FD20A
:03000300002F9536
:03000400003F4476
:03000500004ED9D1
:03000600005E5841
:03000700006DC1C8
:03000800007D1464
:03000900008C4D1B
:03000A00009B6FE9
:03000B0000AA7FC9
:03000C0000B977C1
:03000D0000C85BCD
:03000E0000D726F2
:03000F0000E5DC2D
:0300100000F47E7B
:0300110001030CDC
:0300120001118158
:03001300011FE1E9
:03001400012E2F8B
:03001500013C6A41
:03001600014A8D0F
:0300170001589FEE
:03001800016699E5
:03001900017480EF
:03001A0001825808
:03001B000190163B
:03001C00019DC380
:03001D0001AB5FD5
:03001E0001B8E343
:03001F0001C657C0
:0300200001D3B851
:0300210001E105F5
:0300220001EE3FAD
:0300230001FB6975
:0300240002087D52
:0300250002158140
:0300260002227043
:03002700022F5352
:03002800023C1D7A
:030029000248DDAD
:03002A00025585F7
:03002B0002621D51
:03002C00026EA3BE
:03002D00027B193A
:03002E00028781C5
:03002F000293D465
:0300300002A01615
:0300310002AC47D7
:0300320002B86AA7
:0300330002C47C88
:0300340002D07C7B
:0300350002DC6A80
:0300360002E84B92
:0300370002F419B7
:0300380002FFDBE9
:03003900030B8C2A
:03003A0003172B7E
:03003B000322BDE0
:03003C00032E3E52
:03003D000339AFD5
:03003E0003451166
:03003F0003506308
:03004000035BAAB5
:030041000366DD76
:0300420003720541
:03004300037D1D1D
:030044000388240A
:0300450003931F03
:03004600039E0C0A
:0300470003A8E823
:0300480003B3BA45
:0300490003BE787B
:03004A0003C92EB9
:03004B0003D3D00C
:03004C0003DE6769
:03004D0003E8F2D3
:03004E0003F36E4B
:03004F0003FDDDD1
:0300500000083A6B
:0300510000128E0C
:03005200001CD4BB
:0300530000270E75
:0300540000313741
:03005500003B5617
:03005600004567FB
:03005700004F6DEA
:03005800005962EA
:0300590000634DF4
:03005A00006D2C0A
:03005B000076FD2F
:03005C000080C45D
:03005D00008A7B9B
:03005E00009428E3
:03005F00009DC839
:0300600000A75B9B
:0300610000B0E408
:0300620000BA5F82
:0300630000C3D106
:0300640000CD3498
:0300650000D68C36
:0300660000DFDCDC
:0300670000E91D90
:0300680000F25251
:0300690000FB7E1B
:03006A0001049BF3
:03006B00010DADD7
:03006C000116B6C4
:03006D00011FB5BB
:03006E000128A7BF
:03006F0001318DCF
:03007000013A69E9
:030071000143390F
:03007200014BFE41
:030073000154BE77
:03007400015D6FBC
:030075000166140D
:03007600016EAE6A
:03007700017742CC
:03007800017FC63F
:03007900018846B5
:03007A000190B73B
:03007B0001991DCB
:03007C0001A17C63
:03007D0001A9D105
:03007E0001B21CB0
:03007F0001BA5B68
:0300800001C28F2B
:0300810001CABBF6
:0300820001D2DDCB
:0300830001DAF7A8
:0300840001E3068F
:0300850001EB0B81
:0300860001F3077C
:0300870001FAFC7F
:030088000202E38E
:03008900020AC2A6
:03008A00021298C7
:03008B00021A69ED
:03008C0002222A23
:03008D000229E560
:03008E00023198A4
:03008F0002393FF4
:030090000240DF4C
:03009100024878AA
:0300920002500514
:0300930002578A87
:03009400025F09FF
:0300950002667C84
:03009600026DE810
:03009700027548A7
:03009800027CA542
:030099000283F5EA
:03009A00028B3F97
:03009B0002927F4F
:03009C000299B610
:03009D0002A0E6D8
:03009E0002A80FA6
:03009F0002AF2F7E
:0300A00002B6485D
:0300A10002BD5548
:0300A20002C46035
:0300A30002CB5D30
:0300A40002D25530
:0300A50002D94538
:0300A60002E02F46
:0300A70002E70C61
:0300A80002EDE680
:0300A90002F4B6A8
:0300AA0002FB80D6
:0300AB000302400D
:0300AC000308FA4C
:0300AD00030FAD91
:0300AE00031657DF
:0300AF00031CF837
:0300B0000323988F
:0300B100032A2CF3
:0300B2000330B95F
:0300B30003373ED2
:0300B400033DBC4D
:0300B500034434CD
:0300B600034AA258
:0300B70003510BE7
:0300B8000357707B
:0300B900035DC81C
:0300BA0003641DBF
:0300BB00036A6C69
:0300BC000370B21C
:0300BD000376F1D6
:0300BE00037D2996
:0300BF0003835B5D
:0300C00003898829
:0300C100038FACFE
:0300C2000395C9DA
:0300C300039BE1BB
:0300C40003A1F0A5
:0300C50003A7F995
:0300C60003ADFB8C
:0300C70003B3F987
:0300C80003B9F089
:0300C90003BFDF93
:0300CA0003C5C9A2
:0300CB0003CBADB7
:0300CC0003D18AD3
:0300CD0003D75FF7
:0300CE0003DD321D
:0300CF0003E2FA4F
:0300D00003E8BD85
:0300D10003EE7CBF
:0300D20003F43103
:0300D30003F9E44A
:0300D40003FF9196
:0300D500000534EF
:0300D600000AD449
:0300D70000106FA7
:0300D8000016050A
:0300D900001B9079
:0300DA0000211AE8
:0300DB0000269E5E
:0300DC00002C19DC
:0300DD0000318F60
:0300DE00003701E7
:0300DF00003C6B77
:0300E0000041D10B
:0300E100004731A4
:0300E200004C8946
:0300E3000051DFEA
:0300E40000573092
:0300E500005C7A42
:0300E6000061BFF7
:0300E7000066FEB2
:0300E800006C3970
:0300E90000716D36
:0300EA0000769B02
:0300EB00007BC3D4
:0300EC000080E8A9
:0300ED0000860783
:0300EE00008B2064
:0300EF000090344A
:0300F00000954335
:0300F100009A5022
:0300F200009F5517
:0300F30000A45313
:0300F40000A94F11
:0300F50000AE4614
:0300F60000B3361E
:0300F70000B8212D
:0300F80000BD0A3E
:0300F90000C1EB58
:0300FA0000C6C875
:0300FB0000CB9F98
:0300FC0000D074BD
:0300FD0000D543E8
:0300FE0000DA0B1A
:0300FF0000DECE52
:0301000000E38F8A
:0301010000E848CB
:0301020000ED000D
:0301030000F1B355
:0301040000F65FA3
:0301050000FB06F6
:0301060000FFAB4C
:0301070001044CA4
:030108000108E605
:03010900010D7C69
:03010A0001120DD2
:03010B0001169A40
:03010C00011B24B0
:03010D00011FA827
:03010E00012428A1
:03010F000128A51F
:03011000012D1BA3
:0301110001318C2D
:030112000135FBB9
:03011300013A6648
:03011400013ECBDE
:0301150001432B78
:0301160001478717
:03011700014BE1B8
:030118000150385B
:0301190001548608
:03011A000158D7B2
:03011B00015D1E65
:03011C0001615F1F
:03011D000165A0D9
:03011E000169DC98
:03011F00016E135B
:0301200001724722
:03012100017678EC
:03012200017AA5BA
:03012300017ECC8E
:030124000182EF66
:030125000187103F
:03012600018B2A20
:03012700018F4302
:03012800019358E8
:03012900019766D5
:03012A00019B72C4
:03012B00019F7BB6
:03012C0001A37FAD
:03012D0001A780A7
:03012E0001AB80A2
:03012F0001AF7AA3
:0301300001B36DAB
:0301310001B761B2
:0301320001BB4EC0
:0301330001BF38D1
:0301340001C31DE7
:0301350001C703FC
:0301360001CAE01B
:0301370001CEBD39
:0301380001D2965B
:0301390001D66A82
:03013A0001DA3BAC
:03013B0001DE0BD7
:03013C0001E1D707
:03013D0001E59D3C
:03013E0001E96074
:03013F0001ED1FB0
:0301400001F0D8F3
:0301410001F49135
:0301420001F84B76
:0301430001FBFBC2
:0301440001FFAA0E
:030145000203555D
:030146000206FEB0
:03014700020AA009
:03014800020E455F
:030149000211DEC2
:03014A0002157A21
:03014B0002191284
:03014C00021CA6EC
:03014D0002203756
:03014E000223C3C6
:03014F0002274F35
:03015000022AD6AA
:03015100022E5922
:030152000231DA9D
:0301530002355919
:030154000238D599
:03015500023C4C1D
:03015600023FC0A5
:0301570002432F31
:0301580002469EBE
:03015900024A0750
:03015A00024D70E3
:03015B000250D778
:03015C0002543812
:03015D00025796B0
:03015E00025AF052
:03015F00025E48F5
:0301600002619F9A
:030161000264F342
:03016200026843ED
:03016300026B929A
:03016400026EDB4D
:0301650002722102
:03016600027567B8
:030167000278A972
:03016800027BE730
:03016900027F21F1
:03016A0002825CB2
:03016B0002859179
:03016C000288C442
:03016D00028BF50D
:03016E00028F21DC
:03016F0002924BAE
:0301700002957481
:0301710002989859
:03017200029BBB32
:03017300029EDB0E
:0301740002A1F8ED
:0301750002A513CD
:0301760002A82AB2
:0301770002AB3F99
:0301780002AE567E
:0301790002B1646C
:03017A0002B46F5D
:03017B0002B77A4E
:03017C0002BA853F
:03017D0002BD853B
:03017E0002C08933
:03017F0002C38B2D
:0301800002C6892B
:0301810002C9832D
:0301820002CC7B31
:0301830002CF6F39
:0301840002D26341
:0301850002D5544C
:0301860002D8425A
:0301870002DB2E6A
:0301880002DE1A7A
:0301890002E10090
:03018A0002E3E6A7
:03018B0002E6C7C2
:03018C0002E9A8DD
:03018D0002EC84FD
:03018E0002EF5F1E
:03018F0002F23742
:0301900002F50B6A
:0301910002F7DF93
:0301920002FAB3BB
:0301930002FD81E9
:0301940003004D18
:030195000303164B
:030196000305DF7F
:030197000308A4B6
:03019800030B66F0
:03019900030E282A
:03019A000310E669
:03019B000313A2A9
:03019C0003165DEA
:03019D000319142F
:03019E00031BCA76
:03019F00031E7FBD
:0301A00003212E0A
:0301A1000323DB5A
:0301A200032688A9
:0301A300032932FB
:0301A400032BDA50
:0301A500032E80A6
:0301A600033125FD
:0301A7000333C956
:0301A800033669B2
:0301A90003390512
:0301AA00033BA074
:0301AB00033E3AD6
:0301AC000340D13C
:0301AD00034365A4
:0301AE000345F80E
:0301AF0003488A78
:0301B000034B18E6
:0301B100034DA358
:0301B20003502EC9
:0301B3000352B73D
:0301B40003553CB4
:0301B5000357C02D
:0301B600035A42A7
:0301B700035CC125
:0301B800035F41A1
:0301B9000361BD22
:0301BA00036437A4
:0301BB000366B028
:0301BC00036927AD
:0301BD00036B9938
:0301BE00036E0AC3
:0301BF0003707B4F
:0301C0000372EADD
:0301C1000375566D
:0301C2000377C1FF
:0301C300037A2993
:0301C400037C9128
:0301C500037EF5C1
:0301C6000381585A
:0301C7000383BAF5
:0301C80003861794
:0301C90003887335
:0301CA00038AD2D3
:0301CB00038D2879
:0301CC00038F801E
:0301CD000391D8C3
:0301CE0003942D6A
:0301CF0003967E16
:0301D0000398CDC4
:0301D100039B1E6F
:0301D200039D6723
:0301D300039FB5D2
:0301D40003A1FD87
:0301D50003A4443C
:0301D60003A689F4
:0301D70003A8CDAD
:0301D80003AB1066
:0301D90003AD4E25
:0301DA0003AF8CE4
:0301DB0003B1C9A4
:0301DC0003B40564
:0301DD0003B63F27
:0301DE0003B877EC
:0301DF0003BAADB3
:0301E00003BCE07D
:0301E10003BF1247
:0301E20003C14115
:0301E30003C371E2
:0301E40003C59FB1
:0301E50003C7CA83
:0301E60003C9F555
:0301E70003CC1C2A
:0301E80003CE4102
:0301E90003D065DB
:0301EA0003D28CB1
:0301EB0003D4AB8F
:0301EC0003D6CC6B
:0301ED0003D8EB49
:0301EE0003DB0828
:0301EF0003DD230A
:0301F00003DF3DED
:0301F10003E156D1
:0301F20003E369BB
:0301F30003E581A0
:0301F40003E7938B
:0301F50003E9A675
:0301F60003EBB662
:0301F70003EDC253
:0301F80003EFD042
:0301F90003F1DD32
:0301FA0003F3E725
:0301FB0003F5EF1A
:0301FC0003F7F412
:0301FD0003F9F90A
:0301FE0003FBFE02
:0301FF0003FE00FC
:00000001ff
