:020000040000FA
:020000000800F6
:0200010007FCFA
:0200020007F8FD
:0200030007F400
:0200040007F003
:0200050007EC06
:0200060007E809
:0200070007E40C
:0200080007E00F
:0200090007DC12
:02000A0007D815
:02000B0007D418
:02000C0007D11A
:02000D0007CD1D
:02000E0007C920
:02000F0007C523
:0200100007C126
:0200110007BE28
:0200120007BA2B
:0200130007B62E
:0200140007B330
:0200150007AF33
:0200160007AB36
:0200170007A739
:0200180007A43B
:0200190007A03E
:02001A00079D40
:02001B00079943
:02001C00079546
:02001D00079248
:02001E00078E4B
:02001F00078B4D
:02002000078750
:02002100078353
:02002200078055
:02002300077C58
:0200240007795A
:0200250007755D
:0200260007725F
:02002700076F61
:02002800076B64
:02002900076866
:02002A00076469
:02002B0007616B
:02002C00075D6E
:02002D00075A70
:02002E00075772
:02002F00075375
:02003000075077
:02003100074D79
:0200320007497C
:0200330007467E
:02003400074380
:02003500073F83
:02003600073C85
:02003700073987
:02003800073689
:0200390007328C
:02003A00072F8E
:02003B00072C90
:02003C00072992
:02003D00072595
:02003E00072297
:02003F00071F99
:02004000071C9B
:0200410007199D
:0200420007169F
:020043000713A1
:02004400070FA4
:02004500070CA6
:020046000709A8
:020047000706AA
:020048000703AC
:020049000700AE
:02004A0006FDB1
:02004B0006FAB3
:02004C0006F7B5
:02004D0006F4B7
:02004E0006F1B9
:02004F0006EEBB
:0200500006EBBD
:0200510006E8BF
:0200520006E5C1
:0200530006E2C3
:0200540006DFC5
:0200550006DCC7
:0200560006D9C9
:0200570006D6CB
:0200580006D3CD
:0200590006D0CF
:02005A0006CDD1
:02005B0006CAD3
:02005C0006C8D4
:02005D0006C5D6
:02005E0006C2D8
:02005F0006BFDA
:0200600006BCDC
:0200610006B9DE
:0200620006B6E0
:0200630006B4E1
:0200640006B1E3
:0200650006AEE5
:0200660006ABE7
:0200670006A9E8
:0200680006A6EA
:0200690006A3EC
:02006A0006A0EE
:02006B00069DF0
:02006C00069BF1
:02006D000698F3
:02006E000695F5
:02006F000693F6
:020070000690F8
:02007100068DFA
:02007200068BFB
:020073000688FD
:020074000685FF
:02007500068300
:02007600068002
:02007700067D04
:02007800067B05
:02007900067807
:02007A00067509
:02007B0006730A
:02007C0006700C
:02007D00066E0D
:02007E00066B0F
:02007F00066811
:02008000066612
:02008100066314
:02008200066115
:02008300065E17
:02008400065C18
:0200850006591A
:0200860006571B
:0200870006541D
:0200880006521E
:02008900064F20
:02008A00064D21
:02008B00064A23
:02008C00064824
:02008D00064526
:02008E00064327
:02008F00064029
:02009000063E2A
:02009100063C2B
:0200920006392D
:0200930006372E
:02009400063430
:02009500063231
:02009600062F33
:02009700062D34
:02009800062B35
:02009900062837
:02009A00062638
:02009B00062439
:02009C0006213B
:02009D00061F3C
:02009E00061D3D
:02009F00061A3F
:0200A000061840
:0200A100061641
:0200A200061343
:0200A300061144
:0200A400060F45
:0200A500060C47
:0200A600060A48
:0200A700060849
:0200A80006064A
:0200A90006034C
:0200AA0006014D
:0200AB0005FF4F
:0200AC0005FD50
:0200AD0005FA52
:0200AE0005F853
:0200AF0005F654
:0200B00005F455
:0200B10005F157
:0200B20005EF58
:0200B30005ED59
:0200B40005EB5A
:0200B50005E95B
:0200B60005E65D
:0200B70005E45E
:0200B80005E25F
:0200B90005E060
:0200BA0005DE61
:0200BB0005DC62
:0200BC0005D964
:0200BD0005D765
:0200BE0005D566
:0200BF0005D367
:0200C00005D168
:0200C10005CF69
:0200C20005CD6A
:0200C30005CB6B
:0200C40005C96C
:0200C50005C66E
:0200C60005C46F
:0200C70005C270
:0200C80005C071
:0200C90005BE72
:0200CA0005BC73
:0200CB0005BA74
:0200CC0005B875
:0200CD0005B676
:0200CE0005B477
:0200CF0005B278
:0200D00005B079
:0200D10005AE7A
:0200D20005AC7B
:0200D30005AA7C
:0200D40005A87D
:0200D50005A67E
:0200D60005A47F
:0200D70005A280
:0200D80005A081
:0200D900059E82
:0200DA00059C83
:0200DB00059A84
:0200DC00059885
:0200DD00059686
:0200DE00059487
:0200DF00059288
:0200E000059089
:0200E100058E8A
:0200E200058C8B
:0200E300058A8C
:0200E40005888D
:0200E50005878D
:0200E60005858E
:0200E70005838F
:0200E800058190
:0200E900057F91
:0200EA00057D92
:0200EB00057B93
:0200EC00057994
:0200ED00057795
:0200EE00057695
:0200EF00057496
:0200F000057297
:0200F100057098
:0200F200056E99
:0200F300056C9A
:0200F400056B9A
:0200F50005699B
:0200F60005679C
:0200F70005659D
:0200F80005639E
:0200F90005619F
:0200FA0005609F
:0200FB00055EA0
:0200FC00055CA1
:0200FD00055AA2
:0200FE000558A3
:0200FF000557A3
:020100000555A3
:020101000553A4
:020102000551A5
:020103000550A5
:02010400054EA6
:02010500054CA7
:02010600054AA8
:020107000549A8
:020108000547A9
:020109000545AA
:02010A000543AB
:02010B000542AB
:02010C000540AC
:02010D00053EAD
:02010E00053CAE
:02010F00053BAE
:020110000539AF
:020111000537B0
:020112000536B0
:020113000534B1
:020114000532B2
:020115000530B3
:02011600052FB3
:02011700052DB4
:02011800052BB5
:02011900052AB5
:02011A000528B6
:02011B000526B7
:02011C000525B7
:02011D000523B8
:02011E000522B8
:02011F000520B9
:02012000051EBA
:02012100051DBA
:02012200051BBB
:020123000519BC
:020124000518BC
:020125000516BD
:020126000514BE
:020127000513BE
:020128000511BF
:020129000510BF
:02012A00050EC0
:02012B00050CC1
:02012C00050BC1
:02012D000509C2
:02012E000508C2
:02012F000506C3
:020130000505C3
:020131000503C4
:020132000501C5
:020133000500C5
:0201340004FEC7
:0201350004FDC7
:0201360004FBC8
:0201370004FAC8
:0201380004F8C9
:0201390004F7C9
:02013A0004F5CA
:02013B0004F3CB
:02013C0004F2CB
:02013D0004F0CC
:02013E0004EFCC
:02013F0004EDCD
:0201400004ECCD
:0201410004EACE
:0201420004E9CE
:0201430004E7CF
:0201440004E6CF
:0201450004E4D0
:0201460004E3D0
:0201470004E1D1
:0201480004E0D1
:0201490004DED2
:02014A0004DDD2
:02014B0004DBD3
:02014C0004DAD3
:02014D0004D8D4
:02014E0004D7D4
:02014F0004D5D5
:0201500004D4D5
:0201510004D3D5
:0201520004D1D6
:0201530004D0D6
:0201540004CED7
:0201550004CDD7
:0201560004CBD8
:0201570004CAD8
:0201580004C8D9
:0201590004C7D9
:02015A0004C6D9
:02015B0004C4DA
:02015C0004C3DA
:02015D0004C1DB
:02015E0004C0DB
:02015F0004BFDB
:0201600004BDDC
:0201610004BCDC
:0201620004BADD
:0201630004B9DD
:0201640004B8DD
:0201650004B6DE
:0201660004B5DE
:0201670004B3DF
:0201680004B2DF
:0201690004B1DF
:02016A0004AFE0
:02016B0004AEE0
:02016C0004ADE0
:02016D0004ABE1
:02016E0004AAE1
:02016F0004A8E2
:0201700004A7E2
:0201710004A6E2
:0201720004A4E3
:0201730004A3E3
:0201740004A2E3
:0201750004A0E4
:02017600049FE4
:02017700049EE4
:02017800049CE5
:02017900049BE5
:02017A00049AE5
:02017B000498E6
:02017C000497E6
:02017D000496E6
:02017E000494E7
:02017F000493E7
:020180000492E7
:020181000490E8
:02018200048FE8
:02018300048EE8
:02018400048DE8
:02018500048BE9
:02018600048AE9
:020187000489E9
:020188000487EA
:020189000486EA
:02018A000485EA
:02018B000484EA
:02018C000482EB
:02018D000481EB
:02018E000480EB
:02018F00047FEB
:02019000047DEC
:02019100047CEC
:02019200047BEC
:020193000479ED
:020194000478ED
:020195000477ED
:020196000476ED
:020197000474EE
:020198000473EE
:020199000472EE
:02019A000471EE
:02019B000470EE
:02019C00046EEF
:02019D00046DEF
:02019E00046CEF
:02019F00046BEF
:0201A0000469F0
:0201A1000468F0
:0201A2000467F0
:0201A3000466F0
:0201A4000465F0
:0201A5000463F1
:0201A6000462F1
:0201A7000461F1
:0201A8000460F1
:0201A900045FF1
:0201AA00045DF2
:0201AB00045CF2
:0201AC00045BF2
:0201AD00045AF2
:0201AE000459F2
:0201AF000457F3
:0201B0000456F3
:0201B1000455F3
:0201B2000454F3
:0201B3000453F3
:0201B4000452F3
:0201B5000450F4
:0201B600044FF4
:0201B700044EF4
:0201B800044DF4
:0201B900044CF4
:0201BA00044BF4
:0201BB000449F5
:0201BC000448F5
:0201BD000447F5
:0201BE000446F5
:0201BF000445F5
:0201C0000444F5
:0201C1000443F5
:0201C2000441F6
:0201C3000440F6
:0201C400043FF6
:0201C500043EF6
:0201C600043DF6
:0201C700043CF6
:0201C800043BF6
:0201C900043AF6
:0201CA000439F6
:0201CB000437F7
:0201CC000436F7
:0201CD000435F7
:0201CE000434F7
:0201CF000433F7
:0201D0000432F7
:0201D1000431F7
:0201D2000430F7
:0201D300042FF7
:0201D400042DF8
:0201D500042CF8
:0201D600042BF8
:0201D700042AF8
:0201D8000429F8
:0201D9000428F8
:0201DA000427F8
:0201DB000426F8
:0201DC000425F8
:0201DD000424F8
:0201DE000423F8
:0201DF000422F8
:0201E0000421F8
:0201E100041FF9
:0201E200041EF9
:0201E300041DF9
:0201E400041CF9
:0201E500041BF9
:0201E600041AF9
:0201E7000419F9
:0201E8000418F9
:0201E9000417F9
:0201EA000416F9
:0201EB000415F9
:0201EC000414F9
:0201ED000413F9
:0201EE000412F9
:0201EF000411F9
:0201F0000410F9
:0201F100040FF9
:0201F200040EF9
:0201F300040DF9
:0201F400040CF9
:0201F500040BF9
:0201F600040AF9
:0201F7000409F9
:0201F8000408F9
:0201F9000407F9
:0201FA000406F9
:0201FB000405F9
:0201FC000404F9
:0201FD000403F9
:0201FE000402F9
:0201FF000401F9
:00000001ff
