:020000040000FA
:0100000004FB
:0100010004FA
:0100020004F9
:0100030004F8
:0100040004F7
:0100050004F6
:0100060004F5
:0100070004F4
:0100080004F3
:0100090004F2
:01000A0004F1
:01000B0004F0
:01000C0004EF
:01000D0004EE
:01000E0004ED
:01000F0004EC
:0100100004EB
:0100110004EA
:0100120004E9
:0100130004E8
:0100140004E7
:0100150004E6
:0100160004E5
:0100170004E4
:0100180004E3
:0100190004E2
:01001A0004E1
:01001B0004E0
:01001C0004DF
:01001D0004DE
:01001E0004DD
:01001F0004DC
:0100200004DB
:0100210004DA
:0100220004D9
:0100230004D8
:0100240004D7
:0100250004D6
:0100260004D5
:0100270004D4
:0100280004D3
:0100290004D2
:01002A0004D1
:01002B0004D0
:01002C0004CF
:01002D0004CE
:01002E0004CD
:01002F0004CC
:0100300004CB
:0100310004CA
:0100320004C9
:0100330004C8
:0100340004C7
:0100350004C6
:0100360004C5
:0100370004C4
:0100380004C3
:0100390004C2
:01003A0004C1
:01003B0004C0
:01003C0004BF
:01003D0004BE
:01003E0004BD
:01003F0004BC
:0100400004BB
:0100410004BA
:0100420004B9
:0100430004B8
:0100440004B7
:0100450004B6
:0100460004B5
:0100470004B4
:0100480004B3
:0100490004B2
:01004A0004B1
:01004B0004B0
:01004C0004AF
:01004D0004AE
:01004E0004AD
:01004F0004AC
:0100500005AA
:0100510005A9
:0100520005A8
:0100530005A7
:0100540005A6
:0100550005A5
:0100560005A4
:0100570005A3
:0100580005A2
:0100590005A1
:01005A0005A0
:01005B00059F
:01005C00059E
:01005D00059D
:01005E00059C
:01005F00059B
:01006000059A
:010061000599
:010062000598
:010063000597
:010064000596
:010065000595
:010066000594
:010067000593
:010068000592
:010069000591
:01006A000590
:01006B00058F
:01006C00058E
:01006D00058D
:01006E00058C
:01006F00058B
:01007000058A
:010071000589
:010072000588
:010073000587
:010074000586
:010075000585
:010076000584
:010077000583
:010078000582
:010079000581
:01007A000580
:01007B00057F
:01007C00057E
:01007D00057D
:01007E00057C
:01007F00057B
:01008000057A
:010081000579
:010082000578
:010083000577
:010084000576
:010085000575
:010086000574
:010087000573
:010088000572
:010089000571
:01008A000570
:01008B00056F
:01008C00056E
:01008D00056D
:01008E00056C
:01008F00056B
:01009000056A
:010091000569
:010092000568
:010093000567
:010094000566
:010095000565
:010096000564
:010097000563
:010098000562
:010099000561
:01009A000560
:01009B00055F
:01009C00055E
:01009D00055D
:01009E00055C
:01009F00055B
:0100A000055A
:0100A1000559
:0100A2000558
:0100A3000557
:0100A4000556
:0100A5000555
:0100A6000554
:0100A7000553
:0100A8000552
:0100A9000551
:0100AA000550
:0100AB00054F
:0100AC00054E
:0100AD00054D
:0100AE00054C
:0100AF00054B
:0100B000054A
:0100B1000549
:0100B2000548
:0100B3000547
:0100B4000546
:0100B5000545
:0100B6000544
:0100B7000543
:0100B8000542
:0100B9000541
:0100BA000540
:0100BB00053F
:0100BC00053E
:0100BD00053D
:0100BE00053C
:0100BF00053B
:0100C000053A
:0100C1000539
:0100C2000538
:0100C3000537
:0100C4000536
:0100C5000535
:0100C6000534
:0100C7000533
:0100C8000532
:0100C9000531
:0100CA000530
:0100CB00052F
:0100CC00052E
:0100CD00052D
:0100CE00052C
:0100CF00052B
:0100D000052A
:0100D1000529
:0100D2000528
:0100D3000527
:0100D4000526
:0100D5000624
:0100D6000623
:0100D7000622
:0100D8000621
:0100D9000620
:0100DA00061F
:0100DB00061E
:0100DC00061D
:0100DD00061C
:0100DE00061B
:0100DF00061A
:0100E0000619
:0100E1000618
:0100E2000617
:0100E3000616
:0100E4000615
:0100E5000614
:0100E6000613
:0100E7000612
:0100E8000611
:0100E9000610
:0100EA00060F
:0100EB00060E
:0100EC00060D
:0100ED00060C
:0100EE00060B
:0100EF00060A
:0100F0000609
:0100F1000608
:0100F2000607
:0100F3000606
:0100F4000605
:0100F5000604
:0100F6000603
:0100F7000602
:0100F8000601
:0100F9000600
:0100FA0006FF
:0100FB0006FE
:0100FC0006FD
:0100FD0006FC
:0100FE0006FB
:0100FF0006FA
:0101000006F8
:0101010006F7
:0101020006F6
:0101030006F5
:0101040006F4
:0101050006F3
:0101060006F2
:0101070006F1
:0101080006F0
:0101090006EF
:01010A0006EE
:01010B0006ED
:01010C0006EC
:01010D0006EB
:01010E0006EA
:01010F0006E9
:0101100006E8
:0101110006E7
:0101120006E6
:0101130006E5
:0101140006E4
:0101150006E3
:0101160006E2
:0101170006E1
:0101180006E0
:0101190006DF
:01011A0006DE
:01011B0006DD
:01011C0006DC
:01011D0006DB
:01011E0006DA
:01011F0006D9
:0101200006D8
:0101210006D7
:0101220006D6
:0101230006D5
:0101240006D4
:0101250006D3
:0101260006D2
:0101270006D1
:0101280006D0
:0101290006CF
:01012A0006CE
:01012B0006CD
:01012C0006CC
:01012D0006CB
:01012E0006CA
:01012F0006C9
:0101300006C8
:0101310006C7
:0101320006C6
:0101330006C5
:0101340006C4
:0101350006C3
:0101360006C2
:0101370006C1
:0101380006C0
:0101390006BF
:01013A0006BE
:01013B0006BD
:01013C0006BC
:01013D0006BB
:01013E0006BA
:01013F0006B9
:0101400006B8
:0101410006B7
:0101420006B6
:0101430006B5
:0101440006B4
:0101450006B3
:0101460006B2
:0101470006B1
:0101480006B0
:0101490006AF
:01014A0006AE
:01014B0006AD
:01014C0006AC
:01014D0006AB
:01014E0006AA
:01014F0006A9
:0101500006A8
:0101510006A7
:0101520006A6
:0101530006A5
:0101540006A4
:0101550006A3
:0101560006A2
:0101570006A1
:0101580006A0
:01015900069F
:01015A00069E
:01015B00069D
:01015C00069C
:01015D00069B
:01015E00069A
:01015F000699
:010160000698
:010161000697
:010162000696
:010163000695
:010164000694
:010165000693
:010166000692
:010167000691
:010168000690
:01016900068F
:01016A00068E
:01016B00068D
:01016C00068C
:01016D00068B
:01016E00068A
:01016F000689
:010170000688
:010171000687
:010172000686
:010173000685
:010174000684
:010175000683
:010176000682
:010177000681
:010178000680
:01017900067F
:01017A00067E
:01017B00067D
:01017C00067C
:01017D00067B
:01017E00067A
:01017F000679
:010180000678
:010181000677
:010182000676
:010183000675
:010184000674
:010185000673
:010186000672
:010187000671
:010188000670
:01018900066F
:01018A00066E
:01018B00066D
:01018C00066C
:01018D00066B
:01018E00066A
:01018F000669
:010190000668
:010191000667
:010192000666
:010193000665
:010194000664
:010195000663
:010196000662
:010197000661
:010198000660
:01019900065F
:01019A00065E
:01019B00065D
:01019C00065C
:01019D00065B
:01019E00065A
:01019F000659
:0101A0000658
:0101A1000657
:0101A2000656
:0101A3000655
:0101A4000654
:0101A5000653
:0101A6000652
:0101A7000651
:0101A8000650
:0101A900064F
:0101AA00064E
:0101AB00064D
:0101AC00064C
:0101AD00064B
:0101AE00064A
:0101AF000649
:0101B0000648
:0101B1000647
:0101B2000646
:0101B3000645
:0101B4000644
:0101B5000643
:0101B6000642
:0101B7000641
:0101B8000640
:0101B900063F
:0101BA00063E
:0101BB00063D
:0101BC00063C
:0101BD00063B
:0101BE00063A
:0101BF000639
:0101C0000638
:0101C1000637
:0101C2000636
:0101C3000635
:0101C4000634
:0101C5000633
:0101C6000632
:0101C7000631
:0101C8000630
:0101C900062F
:0101CA00062E
:0101CB00062D
:0101CC00062C
:0101CD00062B
:0101CE00062A
:0101CF000629
:0101D0000628
:0101D1000627
:0101D2000626
:0101D3000625
:0101D4000624
:0101D5000623
:0101D6000622
:0101D7000621
:0101D8000620
:0101D900061F
:0101DA00061E
:0101DB00061D
:0101DC00061C
:0101DD00061B
:0101DE00061A
:0101DF000619
:0101E0000618
:0101E1000617
:0101E2000616
:0101E3000615
:0101E4000614
:0101E5000613
:0101E6000612
:0101E7000611
:0101E8000610
:0101E900060F
:0101EA00060E
:0101EB00060D
:0101EC00060C
:0101ED00060B
:0101EE00060A
:0101EF000609
:0101F0000608
:0101F1000607
:0101F2000606
:0101F3000605
:0101F4000604
:0101F5000603
:0101F6000602
:0101F7000601
:0101F8000600
:0101F90006FF
:0101FA0006FE
:0101FB0006FD
:0101FC0006FC
:0101FD0006FB
:0101FE0006FA
:0101FF0006F9
:00000001ff
